{
  "contractName": "Epoch1Recovery",
  "abi": [
    {
      "inputs": [],
      "stateMutability": "nonpayable",
      "type": "constructor"
    },
    {
      "anonymous": false,
      "inputs": [
        {
          "indexed": false,
          "internalType": "address",
          "name": "who",
          "type": "address"
        },
        {
          "indexed": false,
          "internalType": "address",
          "name": "to",
          "type": "address"
        },
        {
          "indexed": false,
          "internalType": "address",
          "name": "token",
          "type": "address"
        },
        {
          "indexed": false,
          "internalType": "uint256",
          "name": "amount",
          "type": "uint256"
        }
      ],
      "name": "ErcSwept",
      "type": "event"
    },
    {
      "anonymous": false,
      "inputs": [
        {
          "indexed": false,
          "internalType": "address",
          "name": "lp_token_address",
          "type": "address"
        },
        {
          "indexed": false,
          "internalType": "uint256",
          "name": "amount",
          "type": "uint256"
        },
        {
          "indexed": false,
          "internalType": "address",
          "name": "msg_sender",
          "type": "address"
        }
      ],
      "name": "Redeem",
      "type": "event"
    },
    {
      "inputs": [],
      "name": "A_INTEREST_EARNED",
      "outputs": [
        {
          "internalType": "uint256",
          "name": "",
          "type": "uint256"
        }
      ],
      "stateMutability": "view",
      "type": "function"
    },
    {
      "inputs": [],
      "name": "A_SFI_EARNED",
      "outputs": [
        {
          "internalType": "uint256",
          "name": "",
          "type": "uint256"
        }
      ],
      "stateMutability": "view",
      "type": "function"
    },
    {
      "inputs": [],
      "name": "DAI",
      "outputs": [
        {
          "internalType": "contract IERC20",
          "name": "",
          "type": "address"
        }
      ],
      "stateMutability": "view",
      "type": "function"
    },
    {
      "inputs": [],
      "name": "DAI_POOL",
      "outputs": [
        {
          "internalType": "contract ISaffronPool",
          "name": "",
          "type": "address"
        }
      ],
      "stateMutability": "view",
      "type": "function"
    },
    {
      "inputs": [
        {
          "internalType": "address",
          "name": "",
          "type": "address"
        }
      ],
      "name": "DAI_ratio",
      "outputs": [
        {
          "internalType": "uint256",
          "name": "",
          "type": "uint256"
        }
      ],
      "stateMutability": "view",
      "type": "function"
    },
    {
      "inputs": [],
      "name": "SFI",
      "outputs": [
        {
          "internalType": "contract IERC20",
          "name": "",
          "type": "address"
        }
      ],
      "stateMutability": "view",
      "type": "function"
    },
    {
      "inputs": [
        {
          "internalType": "address",
          "name": "",
          "type": "address"
        }
      ],
      "name": "SFI_ratio",
      "outputs": [
        {
          "internalType": "uint256",
          "name": "",
          "type": "uint256"
        }
      ],
      "stateMutability": "view",
      "type": "function"
    },
    {
      "inputs": [],
      "name": "S_INTEREST_EARNED",
      "outputs": [
        {
          "internalType": "uint256",
          "name": "",
          "type": "uint256"
        }
      ],
      "stateMutability": "view",
      "type": "function"
    },
    {
      "inputs": [],
      "name": "S_SFI_EARNED",
      "outputs": [
        {
          "internalType": "uint256",
          "name": "",
          "type": "uint256"
        }
      ],
      "stateMutability": "view",
      "type": "function"
    },
    {
      "inputs": [],
      "name": "UNI",
      "outputs": [
        {
          "internalType": "contract IERC20",
          "name": "",
          "type": "address"
        }
      ],
      "stateMutability": "view",
      "type": "function"
    },
    {
      "inputs": [],
      "name": "UNI_POOL",
      "outputs": [
        {
          "internalType": "contract ISaffronPool",
          "name": "",
          "type": "address"
        }
      ],
      "stateMutability": "view",
      "type": "function"
    },
    {
      "inputs": [],
      "name": "UNI_SFI_EARNED",
      "outputs": [
        {
          "internalType": "uint256",
          "name": "",
          "type": "uint256"
        }
      ],
      "stateMutability": "view",
      "type": "function"
    },
    {
      "inputs": [
        {
          "internalType": "address",
          "name": "",
          "type": "address"
        }
      ],
      "name": "UNI_ratio",
      "outputs": [
        {
          "internalType": "uint256",
          "name": "",
          "type": "uint256"
        }
      ],
      "stateMutability": "view",
      "type": "function"
    },
    {
      "inputs": [
        {
          "internalType": "address",
          "name": "",
          "type": "address"
        }
      ],
      "name": "address_exists",
      "outputs": [
        {
          "internalType": "bool",
          "name": "",
          "type": "bool"
        }
      ],
      "stateMutability": "view",
      "type": "function"
    },
    {
      "inputs": [],
      "name": "governance",
      "outputs": [
        {
          "internalType": "address",
          "name": "",
          "type": "address"
        }
      ],
      "stateMutability": "view",
      "type": "function"
    },
    {
      "inputs": [],
      "name": "ratios_set",
      "outputs": [
        {
          "internalType": "bool",
          "name": "",
          "type": "bool"
        }
      ],
      "stateMutability": "view",
      "type": "function"
    },
    {
      "inputs": [
        {
          "internalType": "address",
          "name": "lp_token_address",
          "type": "address"
        },
        {
          "internalType": "uint256",
          "name": "amount",
          "type": "uint256"
        }
      ],
      "name": "redeem",
      "outputs": [],
      "stateMutability": "nonpayable",
      "type": "function"
    },
    {
      "inputs": [],
      "name": "set_ratios",
      "outputs": [],
      "stateMutability": "nonpayable",
      "type": "function"
    },
    {
      "inputs": [
        {
          "internalType": "address",
          "name": "_token",
          "type": "address"
        },
        {
          "internalType": "address",
          "name": "_to",
          "type": "address"
        }
      ],
      "name": "erc_sweep",
      "outputs": [],
      "stateMutability": "nonpayable",
      "type": "function"
    }
  ],
  "bytecode": "0x61014060405273372bc201134676c846f1fd07a2a059fd18526de36080908152739be973b1496e28b3b745742391b0e5977184f1ac60a0527328dcafcbf29a502b33a719d726b0e723a73b6ad360c052738364cf2bc1504e05efed9b92ee903b642b6f3fb560e0527319e5a60c1646c921ac592409548d1bce5b071faa610100527387c4a23a15e2442422e5e43d08ceef7d1f32792d61012052620000a990600190600662000130565b50348015620000b757600080fd5b5060005b600154811015620001175760016002600060018481548110620000da57fe5b6000918252602080832091909101546001600160a01b031683528201929092526040019020805460ff1916911515919091179055600101620000bb565b50600080546001600160a01b03191633179055620001b1565b82805482825590600052602060002090810192821562000188579160200282015b828111156200018857825182546001600160a01b0319166001600160a01b0390911617825560209092019160019091019062000151565b50620001969291506200019a565b5090565b5b808211156200019657600081556001016200019b565b6112c280620001c16000396000f3fe608060405234801561001057600080fd5b50600436106101515760003560e01c8063840d8976116100cd578063b63a771e11610081578063e0bab4c411610066578063e0bab4c414610337578063e58b75ca1461033f578063fe4a59e81461034757610151565b8063b63a771e146102fc578063ce92d8251461032f57610151565b80639c4e9de9116100b25780639c4e9de9146102b9578063a7773b00146102c1578063b55995cf146102c957610151565b8063840d89761461026a5780639b147558146102b157610151565b8063541bcb76116101245780636532b646116101095780636532b646146102525780636c3916be1461025a5780636f19a7571461026257610151565b8063541bcb76146102195780635aa6e6751461024a57610151565b806312a79942146101565780631e9a6950146101605780632b666fcf146101995780634f7a8675146101d4575b600080fd5b61015e61034f565b005b61015e6004803603604081101561017657600080fd5b5073ffffffffffffffffffffffffffffffffffffffff8135169060200135610566565b61015e600480360360408110156101af57600080fd5b5073ffffffffffffffffffffffffffffffffffffffff81358116916020013516610a08565b610207600480360360208110156101ea57600080fd5b503573ffffffffffffffffffffffffffffffffffffffff16610bb1565b60408051918252519081900360200190f35b610221610bc3565b6040805173ffffffffffffffffffffffffffffffffffffffff9092168252519081900360200190f35b610221610bdb565b610221610bf7565b610207610c0f565b610207610c1d565b61029d6004803603602081101561028057600080fd5b503573ffffffffffffffffffffffffffffffffffffffff16610c2b565b604080519115158252519081900360200190f35b610221610c40565b610221610c58565b61029d610c70565b610207600480360360208110156102df57600080fd5b503573ffffffffffffffffffffffffffffffffffffffff16610c79565b6102076004803603602081101561031257600080fd5b503573ffffffffffffffffffffffffffffffffffffffff16610c8b565b610207610c9d565b610221610cab565b610207610cc3565b610207610cd0565b60005473ffffffffffffffffffffffffffffffffffffffff16331461037357600080fd5b60065460ff16156103e557604080517f08c379a000000000000000000000000000000000000000000000000000000000815260206004820152601260248201527f726174696f7320616c7265616479207365740000000000000000000000000000604482015290519081900360640190fd5b6331803e347f884fa90b7e1098dcd015f9b20a3bd620b8f730f30592d2b21b9f1056b94daea055630db6ab687f49b5bc12ace359f71406be546f88a0426f85d80a692c57adc25b09bcfeaab04155670de0b6b3a76400007f760ebd230f95b6975c3268535162092cdd7a1ef4ccd8203f8c5d35f23f9c731c819055640416f7dc1d7f7715d41ba1c193ef1e5597b4777f0ba3d837efa00c7ea93b3e7fc78ed0fa348555630c5251f27f2f6304b2c167148a2f97f4a61c3c2a0da710ccff8ca1a5181f61686f916daef1557ff5c6bafd9c6d02186214f50e88f2aa6a95be835e76aa7012f0b03f3b1b3c6e7081905566038d7ea4c680007fb3585d2d701514f899c011cfd2c3ef9d7dce71a9d3974e772c35eefe46e016695564c42e0038857f2b90f9a103ba2bfb619df820b145746af63e2e26f2b19a558579b19d0260cdf6557387c4a23a15e2442422e5e43d08ceef7d1f32792d60005260056020527f98966fdef908903bdd593ed108c23f4e617cf7a4f19ef641bb882042089e926655565b73ffffffffffffffffffffffffffffffffffffffff821660009081526002602052604090205460ff166105fa57604080517f08c379a000000000000000000000000000000000000000000000000000000000815260206004820152601460248201527f746f6b656e20646f6573206e6f74206578697374000000000000000000000000604482015290519081900360640190fd5b60065460ff1661066b57604080517f08c379a000000000000000000000000000000000000000000000000000000000815260206004820152601260248201527f726174696f73206e6f7420796574207365740000000000000000000000000000604482015290519081900360640190fd5b604080517f23b872dd000000000000000000000000000000000000000000000000000000008152336004820152600060248201819052604482018490529151849273ffffffffffffffffffffffffffffffffffffffff8416926323b872dd9260648083019360209383900390910190829087803b1580156106eb57600080fd5b505af11580156106ff573d6000803e3d6000fd5b505050506040513d602081101561071557600080fd5b50506040805173ffffffffffffffffffffffffffffffffffffffff8516815260208101849052338183015290517fcb2a3294e34578df242bc534fd343e857e150549c4dfc493d69aa7167743dd189181900360600190a173ffffffffffffffffffffffffffffffffffffffff8316600090815260036020526040902054736b175474e89094c44da98b954eedeac495271d0f9063a9059cbb9033906107ce90670de0b6b3a7640000906107c89088610cdd565b90610d59565b6040518363ffffffff1660e01b8152600401808373ffffffffffffffffffffffffffffffffffffffff16815260200182815260200192505050602060405180830381600087803b15801561082157600080fd5b505af1158015610835573d6000803e3d6000fd5b505050506040513d602081101561084b57600080fd5b505073ffffffffffffffffffffffffffffffffffffffff831660009081526004602052604090205473b753428af26e81097e7fd17f40c88aaa3e04902c9063a9059cbb9033906108a990670de0b6b3a7640000906107c89088610cdd565b6040518363ffffffff1660e01b8152600401808373ffffffffffffffffffffffffffffffffffffffff16815260200182815260200192505050602060405180830381600087803b1580156108fc57600080fd5b505af1158015610910573d6000803e3d6000fd5b505050506040513d602081101561092657600080fd5b505073ffffffffffffffffffffffffffffffffffffffff831660009081526004602052604090205473c76225124f3caab07f609b1d147a31de43926cd69063a9059cbb90339061098490670de0b6b3a7640000906107c89088610cdd565b6040518363ffffffff1660e01b8152600401808373ffffffffffffffffffffffffffffffffffffffff16815260200182815260200192505050602060405180830381600087803b1580156109d757600080fd5b505af11580156109eb573d6000803e3d6000fd5b505050506040513d6020811015610a0157600080fd5b5050505050565b60005473ffffffffffffffffffffffffffffffffffffffff163314610a8e57604080517f08c379a000000000000000000000000000000000000000000000000000000000815260206004820152601260248201527f6d75737420626520676f7665726e616e63650000000000000000000000000000604482015290519081900360640190fd5b604080517f70a082310000000000000000000000000000000000000000000000000000000081523060048201529051839160009173ffffffffffffffffffffffffffffffffffffffff8416916370a08231916024808301926020929190829003018186803b158015610aff57600080fd5b505afa158015610b13573d6000803e3d6000fd5b505050506040513d6020811015610b2957600080fd5b50519050610b4e73ffffffffffffffffffffffffffffffffffffffff83168483610d9b565b6040805133815273ffffffffffffffffffffffffffffffffffffffff80861660208301528616818301526060810183905290517f2c4e64c7c0957a81c0076a0a3f3c7d9f0a5d6158292071c794436f829d12cfb79181900360800190a150505050565b60036020526000908152604090205481565b73c76225124f3caab07f609b1d147a31de43926cd681565b60005473ffffffffffffffffffffffffffffffffffffffff1681565b73b753428af26e81097e7fd17f40c88aaa3e04902c81565b69082b513e712d24bdb3a581565b6902435edb7132bb4e000081565b60026020526000908152604090205460ff1681565b7369ec762faacd5b95ed19e99233e2b5176b366aa381565b7370d8682dddd33571722d14aa327049dad869aee981565b60065460ff1681565b60056020526000908152604090205481565b60046020526000908152604090205481565b690a1f04b60337b20354fa81565b736b175474e89094c44da98b954eedeac495271d0f81565b68cb49b44ba602d8000081565b681e7e4171bf4d3a000081565b600082610cec57506000610d53565b82820282848281610cf957fe5b0414610d50576040517f08c379a00000000000000000000000000000000000000000000000000000000081526004018080602001828103825260218152602001806112426021913960400191505060405180910390fd5b90505b92915050565b6000610d5083836040518060400160405280601a81526020017f536166654d6174683a206469766973696f6e206279207a65726f000000000000815250610e2d565b6040805173ffffffffffffffffffffffffffffffffffffffff8416602482015260448082018490528251808303909101815260649091019091526020810180517bffffffffffffffffffffffffffffffffffffffffffffffffffffffff167fa9059cbb00000000000000000000000000000000000000000000000000000000179052610e28908490610eeb565b505050565b60008183610ed3576040517f08c379a00000000000000000000000000000000000000000000000000000000081526004018080602001828103825283818151815260200191508051906020019080838360005b83811015610e98578181015183820152602001610e80565b50505050905090810190601f168015610ec55780820380516001836020036101000a031916815260200191505b509250505060405180910390fd5b506000838581610edf57fe5b049150505b9392505050565b6060610f4d826040518060400160405280602081526020017f5361666545524332303a206c6f772d6c6576656c2063616c6c206661696c65648152508573ffffffffffffffffffffffffffffffffffffffff16610fc39092919063ffffffff16565b805190915015610e2857808060200190516020811015610f6c57600080fd5b5051610e28576040517f08c379a000000000000000000000000000000000000000000000000000000000815260040180806020018281038252602a815260200180611263602a913960400191505060405180910390fd5b6060610fd28484600085610fda565b949350505050565b606082471015611035576040517f08c379a000000000000000000000000000000000000000000000000000000000815260040180806020018281038252602681526020018061121c6026913960400191505060405180910390fd5b61103e85611195565b6110a957604080517f08c379a000000000000000000000000000000000000000000000000000000000815260206004820152601d60248201527f416464726573733a2063616c6c20746f206e6f6e2d636f6e7472616374000000604482015290519081900360640190fd5b600060608673ffffffffffffffffffffffffffffffffffffffff1685876040518082805190602001908083835b6020831061111357805182527fffffffffffffffffffffffffffffffffffffffffffffffffffffffffffffffe090920191602091820191016110d6565b6001836020036101000a03801982511681845116808217855250505050505090500191505060006040518083038185875af1925050503d8060008114611175576040519150601f19603f3d011682016040523d82523d6000602084013e61117a565b606091505b509150915061118a82828661119b565b979650505050505050565b3b151590565b606083156111aa575081610ee4565b8251156111ba5782518084602001fd5b6040517f08c379a0000000000000000000000000000000000000000000000000000000008152602060048201818152845160248401528451859391928392604401919085019080838360008315610e98578181015183820152602001610e8056fe416464726573733a20696e73756666696369656e742062616c616e636520666f722063616c6c536166654d6174683a206d756c7469706c69636174696f6e206f766572666c6f775361666545524332303a204552433230206f7065726174696f6e20646964206e6f742073756363656564a264697066735822122038b596707536886f1e7076c137761c0e6870ed9aafe8329dc2e0c0d06d54b86064736f6c63430007040033",
  "immutableReferences": {},
  "source": "// SPDX-License-Identifier: MIT\n\npragma solidity ^0.7.1;\n\nimport \"./interfaces/ISaffronPool.sol\";\nimport \"./interfaces/ISaffronAdapter.sol\";\nimport \"./lib/SafeMath.sol\";\nimport \"./lib/IERC20.sol\";\n//import \"./lib/ERC20.sol\";\nimport \"./lib/SafeERC20.sol\";\n\ncontract Epoch1Recovery {\n  using SafeERC20 for IERC20;\n  using SafeMath for uint256;\n\n  address public governance;\n\n  // Existing on-chain contracts\n  ISaffronPool public constant DAI_POOL = ISaffronPool(0x70D8682DDdD33571722D14aa327049DaD869AEE9); // https://etherscan.io/address/0x70d8682dddd33571722d14aa327049dad869aee9\n  ISaffronPool public constant UNI_POOL = ISaffronPool(0x69ec762faacD5B95eD19E99233E2B5176B366aa3); // https://etherscan.io/address/0x69ec762faacD5B95eD19E99233E2B5176B366aa3\n\n  IERC20 public constant DAI = IERC20(0x6B175474E89094C44Da98b954EedeAC495271d0F);\n  IERC20 public constant SFI = IERC20(0xb753428af26E81097e7fD17f40c88aaA3E04902c);\n  IERC20 public constant UNI = IERC20(0xC76225124F3CaAb07f609b1D147a31de43926cd6);\n\n  address[] lp_token_addresses = [\n    0x372Bc201134676c846F1fd07a2a059Fd18526De3, // S dsec        https://etherscan.io/token/0x372Bc201134676c846F1fd07a2a059Fd18526De3\n    0x9be973b1496E28b3b745742391B0E5977184f1AC, // S principal   https://etherscan.io/token/0x9be973b1496E28b3b745742391B0E5977184f1AC\n    0x28DcafcbF29A502B33a719d726B0E723A73b6AD3, // A dsec        https://etherscan.io/token/0x28DcafcbF29A502B33a719d726B0E723A73b6AD3\n    0x8364Cf2bc1504e05EfEd9b92Ee903b642B6f3Fb5, // A principal   https://etherscan.io/token/0x8364Cf2bc1504e05EfEd9b92Ee903b642B6f3Fb5\n    0x19e5a60c1646c921aC592409548d1bCe5B071Faa, // UNI dsec      https://etherscan.io/token/0x19e5a60c1646c921ac592409548d1bce5b071faa\n    0x87c4a23A15E2442422E5e43d08cEEF7D1F32792d  // UNI principal https://etherscan.io/token/0x87c4a23A15E2442422E5e43d08cEEF7D1F32792d\n  ];\n  \n  // Require the address exists to redeem it\n  mapping(address=>bool) public address_exists;\n\n  // For calculated ratios (scaled up by 10**18)\n  mapping(address=>uint256) public DAI_ratio;\n  mapping(address=>uint256) public SFI_ratio;\n  mapping(address=>uint256) public UNI_ratio;\n\n  bool public ratios_set;\n\n  // Constant earnings (epoch 1 wound down already):\n  uint256 public constant S_INTEREST_EARNED = 38577996099131004531621;\n  uint256 public constant A_INTEREST_EARNED = 47795853357341105935610;\n  uint256 public constant S_SFI_EARNED = 10687500000000000000000;\n  uint256 public constant A_SFI_EARNED = 562500000000000000000;\n  uint256 public constant UNI_SFI_EARNED = 3750000000000000000000; \n\n  constructor() {\n    for (uint256 i = 0; i < lp_token_addresses.length; i++) {\n      address_exists[lp_token_addresses[i]] = true;\n    }\n    governance = msg.sender;\n  }\n\n  event Redeem(address lp_token_address, uint256 amount, address msg_sender);\n  function redeem(address lp_token_address, uint256 amount) public {\n    require(address_exists[lp_token_address], \"token does not exist\");\n    require(ratios_set, \"ratios not yet set\");\n    \n    IERC20 lp_token = IERC20(lp_token_address); \n    lp_token.transferFrom(msg.sender, 0x0000000000000000000000000000000000000000, amount);\n\n    emit Redeem(lp_token_address, amount, msg.sender);\n    DAI.transfer(msg.sender, DAI_ratio[lp_token_address].mul(amount).div(1 ether));\n    SFI.transfer(msg.sender, SFI_ratio[lp_token_address].mul(amount).div(1 ether));\n    UNI.transfer(msg.sender, SFI_ratio[lp_token_address].mul(amount).div(1 ether));\n  }\n\n  function set_ratios() public {\n    require(msg.sender == governance);\n    require(!ratios_set, \"ratios already set\");\n\n    // S tranche dsec/principal ratios\n    DAI_ratio[0x372Bc201134676c846F1fd07a2a059Fd18526De3] = 830488116;\n    SFI_ratio[0x372Bc201134676c846F1fd07a2a059Fd18526De3] = 230075240;\n    DAI_ratio[0x9be973b1496E28b3b745742391B0E5977184f1AC] = 1 ether;\n\n    // A tranche dsec/principal ratios\n    DAI_ratio[0x28DcafcbF29A502B33a719d726B0E723A73b6AD3] = 17565211677;\n    SFI_ratio[0x28DcafcbF29A502B33a719d726B0E723A73b6AD3] = 206721522;\n    DAI_ratio[0x8364Cf2bc1504e05EfEd9b92Ee903b642B6f3Fb5] = 1 ether;\n    SFI_ratio[0x8364Cf2bc1504e05EfEd9b92Ee903b642B6f3Fb5] = 1 ether / 1000;\n\n    // UNI LP dsec/principal ratios\n    SFI_ratio[0x19e5a60c1646c921aC592409548d1bCe5B071Faa] = 842585356421;\n    UNI_ratio[0x87c4a23A15E2442422E5e43d08cEEF7D1F32792d] = 1 ether;\n  }\n  \n  event ErcSwept(address who, address to, address token, uint256 amount);\n  function erc_sweep(address _token, address _to) public {\n    require(msg.sender == governance, \"must be governance\");\n    IERC20 tkn = IERC20(_token);\n    uint256 tBal = tkn.balanceOf(address(this));\n    tkn.safeTransfer(_to, tBal);\n    emit ErcSwept(msg.sender, _to, _token, tBal);\n  }\n}\n",
  "sourcePath": "/home/joey/Documents/joey/saffron/git/github.com/saffron-finance/epoch1-recovery/contracts/Epoch1Recovery.sol",
  "compiler": {
    "name": "solc",
    "version": "0.7.4+commit.3f05b770.Emscripten.clang"
  },
  "schemaVersion": "3.3.2",
  "updatedAt": "2020-11-29T21:55:11.726Z",
  "devdoc": {
    "kind": "dev",
    "methods": {},
    "version": 1
  },
  "userdoc": {
    "kind": "user",
    "methods": {},
    "version": 1
  }
}